:0400000047EF00F0D6
:100008003A82FACF18F0FBCF19F0E9CF1AF0EACF0D
:100018001BF0E1CF1CF0E2CF1DF0D9CF1EF0DACFF4
:100028001FF0F3CF20F0F4CF21F0F6CF22F0F7CF76
:1000380023F0F8CF24F0F5CF25F0F29E9E0E086E3F
:10004800000E096E15EC02F0F28E25C0F5FF24C0F3
:10005800F8FF23C0F7FF22C0F6FF21C0F4FF20C03D
:10006800F3FF1FC0DAFF1EC0D9FF1DC0E2FF1CC08E
:10007800E1FF1BC0EAFF1AC0E9FF19C0FBFF18C067
:10008800FAFF3A92110058EF09F0000E0001966F3E
:10009800000E0001956F0001B76906EC08F0310EFB
:1000A8000001606F000E0001616F98EC0AF0280EE5
:1000B8000001606F000E0001616F98EC0AF0AFEC70
:1000C80007F0F40E0001606F010E616F000E626FA1
:1000D800000E636F83EC09F0310E0001606F000EB3
:1000E8000001616F7BEC0AF0280E0001606F000EC2
:1000F8000001616F7BEC0AF0020E5AD00001996989
:100108005AD000019D05D8A410D00001B0A304D096
:10011800020E00019D6F09D0280E0001606F000ECD
:100128000001616FC9EC0AF0ECD7020E00019D19BD
:10013800D8A41CD000019C510001D8B417D09E0E41
:1001480000016B6F000E00016C6F6A0E00016D6F8D
:10015800010E00016E6F9CC06FF01EEC0AF0010EDC
:1001680000019D6F000E00019C6FCBD79E0E000111
:10017800676F000E0001686F000197510001936FCF
:10018800946B93C069F094C06AF0DBEC0AF0000944
:10019800D8B4B7D7310E0001606F000E0001616F4F
:1001A800C9EC0AF0000197AF09D097C09AF0030E86
:1001B80000019D6FA3D700019869A3D7030E000122
:1001C8009D19D8A403D097C099F09BD7040E0001BD
:1001D8009D19D8A404D097C098F0050E0ED1050E2D
:1001E80000019D19D8A4A1D0820E00019A19D8A4A3
:1001F8002DD0000199290001B76F9E0E0001666F8E
:10020800000E0001676F9AC068F05EEC0AF09E0E5F
:100218000001666F000E0001676FB7C068F05EEC02
:100228000AF09E0E0001666F000E0001676F96C00F
:1002380068F05EEC0AF09E0E0001666F000E000189
:10024800676F96C068F05EEC0AF0D6D0000199514D
:100258000001B719D8B42AD09E0E0001666F000EAF
:100268000001676F9AC068F05EEC0AF09E0E00010C
:10027800666F000E0001676F99C068F05EEC0AF0C7
:100288009E0E0001666F000E0001676F98C068F04F
:100298005EEC0AF09E0E0001666F000E0001676FAB
:1002A80097C068F05EEC0AF0060EA7D0830E000136
:1002B8009A19D8A429D09E0E0001666F000E00017D
:1002C800676F9AC068F05EEC0AF09E0E0001666FD8
:1002D800000E0001676FB7C068F05EEC0AF09E0E72
:1002E8000001666F000E0001676F96C068F05EEC53
:1002F8000AF09E0E0001666F000E0001676F96C03F
:1003080068F05EEC0AF078D0800E00019A19D8B433
:1003180005D0810E00019A19D8A407D0070E000154
:100328009D6F000E0001956FECD6060E00019D1919
:10033800D8A40AD09E0E0001666F000E0001676FF8
:1003480097C068F05EEC0AF0070E00019D19D8A46A
:1003580015D000019551010D6A0EF324D96E010ED6
:10036800F420DA6E97C0DFFF0001952B0001985149
:1003780000019519D8A4C5D6080E3FD0080E000173
:100388009D19D8A43DD000019751F2EC0AF000095C
:10039800D8B432D0810E00019A19D8A428D09E0E64
:1003A8000001666F000E0001676F9AC068F05EEC8E
:1003B8000AF09E0E0001666F000E0001676FB7C05D
:1003C80068F05EEC0AF09E0E0001666F000E0001F8
:1003D800676F96C068F05EEC0AF09E0E0001666FCB
:1003E800000E0001676F96C068F05EEC0AF0F4EC4E
:1003F8000AF0010E00019B6F020E00019D6F81D66D
:10040800310E0001606F000E0001616FF1EC04F025
:10041800280E0001606F000E0001616FF1EC04F01E
:1004280070D63FD0000E9EB8010E106E000E9DB81B
:10043800010E0D6E000E9EBA010E146E000E9DBACE
:10044800010E116E000EABB4010E126E000EABB2AF
:10045800010E136EAB0E156E0F0E166EAC0E1DD080
:10046800000EA4B8010E106E000EA3B8010E0D6E9A
:10047800000EA4BA010E146E000EA3BA010E116E7E
:10048800000E71B4010E126E000E71B2010E136EE1
:10049800710E156E0F0E166E720E0E6E0F0E0F6E1B
:1004A8000DD020EE13F00850D9260950DA22DF507B
:1004B800010AD8B4B7D7030AD8B4D2D71050D8B4E1
:1004C800C3D008C001F009C002F0170E036E000E79
:1004D800046E7EEC06F00009D8B432D020EE14F099
:1004E8000850D9260950DA22DF50D8B418D020EEA7
:1004F80017F00850D9260950DA22DF500A6E20EE8C
:1005080015F00850D9260950DA22DECF0BF0DDCFDE
:100518000CF00BC0D9FF0CC0DAFF0A50DF1220EE36
:100528000EF00850D9260950DA22DECF0AF0DDCFC6
:100538000BF00AC0D9FF0BC0DAFF17C0DFFF84D069
:1005480020EE14F00850D9260950DA22DF50D8B42A
:100558001ED00EC0D9FF0FC0DAFFDFA2FAD720EEF7
:1005680018F00850D9260950DA22DF500A6E20EE1A
:1005780015F00850D9260950DA22DECF0BF0DDCF6E
:100588000CF00BC0D9FF0CC0DAFF0A50DF1608C008
:1005980001F009C002F0000E036EF9EC09F054D026
:1005A8001250D8B409D020EE12F00850D9260950BC
:1005B800DA22000EDB8812001350D8B413D020EED4
:1005C80012F00850D9260950DA22000EDB8A15C02D
:1005D800D9FF16C0DAFFEF0EDF1615C0D9FF16C017
:1005E800DAFFE7D720EE10F00850D9260950DA22B2
:1005F800DECF0AF0DDCF0BF00AC0D9FF0BC0DAFF5F
:10060800DF50176E060E0824016E000E0920026ED8
:1006180017C003F0EDEC06F00AD0000E9EBA010EEA
:10062800146E12D0000EA4BA010E146E0DD020EE76
:1006380013F00850D9260950DA22DF50010AD8B43D
:10064800ECD7030AD8B4EED7115014140009D8B463
:100658001200A6D7000E0001736F000E726F900E85
:10066800000165190AE1D00E0001661906E1030EC2
:100678000001671900016411D8A495D068C0D9FF9A
:1006880069C0DAFF010EDF6E2AD0340E0001736FE5
:10069800140EADD00D0E0001736F040EA8D0060E17
:1006A8000001736F820EA3D0010E0001736FA00EBC
:1006B8009ED0010E0001736F7F0E99D0000E0001CD
:1006C800736FCF0E94D0000E0001736F440E8FD05D
:1006D800000E0001736F220E8AD0000E120060C057
:1006E8006EF061C06FF062C070F063C071F000011D
:1006F8007151000AD8B44ED0F0D700016F51010AE9
:10070800D8B413D0050AD8B416D00D0AD8B419D065
:100718002C0AD8B41CD00D0AD8B41FD0630AD8B498
:1007280022D0AA0AD8B425D0D8D700016E512C0AF5
:10073800D8B4ABD7D2D700016E51B00AD8B4AAD773
:10074800CCD700016E51600AD8B4A9D7C6D700012A
:100758006E51800AD8B4A8D7C0D700016E51B10A2B
:10076800D8B4A7D7BAD700016E51000AD8B4A6D713
:10077800B4D700016E51000AD8B4A5D7AED700018E
:100788006F51C20AD8A4A9D700016E51000AD8B483
:100798009FD7A3D700017051000AD8B4AED7010A79
:1007A800D8B4EDD79AD7400E0001641996E1420EED
:1007B8000001651992E10F0E000166190001671129
:1007C800D8A48BD768C0D9FF69C0DAFF010EDF6EE5
:1007D80010D0000E0001736F330E09D0000E000117
:1007E800736F190E04D0000E0001736F050E726F3F
:1007F80039D060C06EF061C06FF062C070F063C045
:1008080071F000017151000AD8B426D066D70001F2
:100818006F51010AD8B40AD0050AD8B40BD00D0A12
:10082800D8B40ED0210AD8B411D057D700016E51D0
:100838002C0A9CD700016E51B00AD8B4CAD74DD73C
:1008480000016E51600AD8B4C9D747D700016E516C
:10085800B10AD8B4C8D741D700017051000AD8B43A
:10086800D6D73BD7000173516AC0D9FF6BC0DAFFF6
:10087800DF6E6CC0D9FF6DC0DAFF72C0DFFF010EFA
:100888001200000120EE13F08251D9268351DA229A
:1008980084C0DFFF72D0000120EE0EF08251D9260D
:1008A8008351DA22AD0EDE6E0F0EDD6E000120EEF2
:1008B80010F08251D9268351DA22AE0EDE6E0F0E69
:1008C800DD6E0F013A9D0F013A9F948C948EAC9483
:1008D800AC98AC9CAC8AAB8EAB8882C074F083C0F9
:1008E80075F085C076F086C077F087C078F088C04C
:1008F80079F089C07AF08AC07BF08BC07CF08CC01C
:100908007DF05BEC08F09F889F8A3FD0000120EEC5
:100918000EF08251D9268351DA22730EDE6E0F0E45
:10092800DD6E000120EE10F08251D9268351DA22C3
:10093800740EDE6E0F0EDD6E938C938E7294729829
:10094800729C728A718E718882C074F083C075F04F
:1009580085C076F086C077F087C078F088C079F0D7
:1009680089C07AF08AC07BF08BC07CF08CC07DF0A7
:100978005BEC08F0A588A58A08D000018451010A1B
:10098800D8B489D7030AD8B4C1D7000120EE12F031
:100998008251D9268351DA22000EDF6E82C060F0C0
:1009A80083C061F08DC062F08EC063F08FC064F0C8
:1009B800EBEC08F0060E000182250001606F000EC6
:1009C800000183210001616F90C062F091C063F063
:1009D80092C064F0EBEC08F0120060C0D9FF61C06F
:1009E800DAFF010EDBBE0DD0010EDB5003E1DE04A1
:1009F800D8A007D060C0D9FF61C0DAFFDE06000EBC
:100A0800DD5A60C0D9FF61C0DAFFDE50DE10D8A41D
:100A18001200000120EE02F06051D9266151DA225D
:100A2800DF50D8B423D0000120EE07F06051D9265A
:100A38006151DA22DF50FF0A8916000120EE05F025
:100A48006051D9266151DA2260C0E1FF61C0E2FF3E
:100A5800DECFE6FFDDCFE5FF000120EE02F06051BA
:100A6800D9266151DA22000EDF6E1200000120EE55
:100A780008F06051D9266151DA22DE04D8B40BD0CF
:100A8800000120EE08F06051D9266151DA22020EE9
:100A9800DE18D8A409D0000120EE07F06051D9264D
:100AA8006151DA22DF508912000120EE03F0605113
:100AB800D9266151DA2260C0E1FF61C0E2FFDECFD2
:100AC800E6FFDDCFE5FF000120EE02F06051D926F8
:100AD8006151DA22010EDF6E000120EE08F060514C
:100AE800D9266151DA22DE04D8A41200000120EED2
:100AF80008F06051D9266151DA22000EDF6E12002B
:100B0800000120EE03F06051D9266151DA2200017C
:100B1800DFA202D0000E1200000120EE05F06051A5
:100B2800D9266151DA22DF500001646F0001645157
:100B3800010D60C0D9FF61C0DAFFDECF65F0DDCFFF
:100B480066F0F35000016525D96EF4500001662166
:100B5800DA6E62C0E1FF63C0E2FFDFCFE7FF0001AA
:100B680020EE03F06051D9266151DA22FE0EDF161D
:100B7800000120EE05F06051D9266151DA22DF0626
:100B8800000120EE05F06051D9266151DA220001FA
:100B980010EE02F06051E1266151E222DE50E65C7F
:100BA800D8B010D0000120EE02F06051D926615172
:100BB800DA22000110EE05F06051E1266151E222CF
:100BC800DFCFE7FF000120EE04F06051D926615124
:100BD800DA22000110EE05F06051E1266151E222AF
:100BE800DE50E618D8A409D0000120EE03F06051C9
:100BF800D9266151DA22000EDB82010E12000001B3
:100C080020EE03F06051D9266151DA220001DFA0FD
:100C180002D0000E1200000120EE04F06051D92627
:100C28006151DA22DF500001636F00016351010D49
:100C380060C0D9FF61C0DAFFDECF64F0DDCF65F0B8
:100C4800F35000016425D96EF45000016521DA6E75
:100C580062C0DFFF000120EE03F06051D926615128
:100C6800DA22FD0EDF16000120EE04F06051D926CD
:100C78006151DA22DF06000120EE04F06051D92626
:100C88006151DA22000110EE02F06051E126615153
:100C9800E222DE50E65CD8B010D0000120EE02F06F
:100CA8006051D9266151DA22000110EE04F060513A
:100CB800E1266151E222DFCFE7FF000120EE05F0D7
:100CC8006051D9266151DA22000110EE04F060511A
:100CD800E1266151E222DE50E618D8A409D00001CD
:100CE80020EE03F06051D9266151DA22000EDB8034
:100CF800010E120020EE03F00150D9260250DA222C
:100D0800DFA202D0000E120020EE05F00150D92615
:100D18000250DA22DF50056E0550010D01C0D9FFDF
:100D280002C0DAFFDECF06F0DDCF07F0F35006246D
:100D3800D96EF4500720DA6E03C0E1FF04C0E2FF69
:100D4800DFCFE7FF20EE03F00150D9260250DA2268
:100D5800FE0EDF1620EE05F00150D9260250DA22E9
:100D6800DF0620EE05F00150D9260250DA2210EEF7
:100D780002F00150E1260250E222DE50E65CD8B0D3
:100D88000ED020EE02F00150D9260250DA2210EEE1
:100D980005F00150E1260250E222DFCFE7FF20EE06
:100DA80004F00150D9260250DA2210EE05F0015065
:100DB800E1260250E222DE50E618D8A408D020EE40
:100DC80003F00150D9260250DA22000EDB82010E10
:100DD800120020EE03F00150D9260250DA22DFB0CB
:100DE800120020EE04F00150D9260250DA22DF501A
:100DF800046E0450010D01C0D9FF02C0DAFFDECF36
:100E080005F0DDCF06F0F3500524D96EF450062026
:100E1800DA6E03C0DFFF20EE03F00150D92602503E
:100E2800DA22FD0EDF1620EE04F00150D92602501A
:100E3800DA22DF0620EE04F00150D9260250DA2229
:100E480010EE02F00150E1260250E222DE50E65C8C
:100E5800D8B00ED020EE02F00150D9260250DA2286
:100E680010EE04F00150E1260250E222DFCFE7FF46
:100E780020EE05F00150D9260250DA2210EE04F0D7
:100E88000150E1260250E222DE50E618D8A41200F2
:100E980020EE03F00150D9260250DA22000EDB8042
:100EA8001200000120EE15F06051D9266151DA22B6
:100EB80062C0DEFF63C0DDFF000120EE17F0605165
:100EC800D9266151DA2264C065F0010E0001666F0F
:100ED8000001652B03D00001D89066370001652F0B
:100EE800FAD700016651DF6E000120EE18F060515C
:100EF800D9266151DA22000110EE17F06051E1267F
:100F08006151E222E750FF0ADF6E000120EE14F083
:100F18006051D9266151DA22010EDF6E000120EE00
:100F280018F06051D9266151DA22DF500001656F4F
:100F3800000120EE15F06051D9266151DA22DECF8A
:100F480066F0DDCF67F066C0D9FF67C0DAFF000141
:100F58006551DF1612009E0E0001826F000E00011F
:100F6800836F010E0001846F800E0001856F250ECE
:100F7800866F000E876F000E886F000E0001896F64
:100F8800900E8A6FD00E8B6F030E8C6F6A0E000165
:100F98008D6F020E00018E6FA00E00018F6F000E84
:100FA8000001906F030E0001916FA00E0001926F77
:100FB80045EC04F09E0E0001606F000E0001616FA9
:100FC8008A0E0001626F0F0E0001636F050E0001AB
:100FD800646F55EC07F09E0E0001606F000E000173
:100FE800616F010E0001626FD3EC09F09E0E0001E3
:100FF800606F000E0001616F010E0001626FABECC3
:1010080009F01200010E266E070EACEC08F0ECECAD
:101018000AF0000EF26E000EF06E000E9D6E000ECD
:10102800A06E000EA36E000E7A6E000E7D6ED09E2E
:10103800F28CF28E92909292929492969298929AC0
:101048000F0138910F0138930F0138950F01389728
:101058000F01389B9398939A310E0001606F000E30
:101068000001616F000E0001636F050E626F000ED4
:101078000001656F050E646F010E0001666F27ECB5
:1010880009F0280E0001606F000E0001616F000E6C
:101098000001636F050E626F000E0001656F050E9B
:1010A800646F020E0001666F27EC09F0120076C02B
:1010B80060F077C061F078C062F079C063F07AC000
:1010C80064F07BC065F07CC066F07DC067F0810E7F
:1010D8000001686F000E0001696F7F0E00016A6FE2
:1010E800000E00016B6F800E00016C6F000E000196
:1010F8006D6F2EEC03F000017E6F00017E51000140
:10110800D8B4120016D0000181B102D0B89601D02F
:10111800B8867FC0B0FF80C0AFFF1200000181B168
:1011280002D0709601D070867FC076FF80C075FFB0
:101138001200000120EE13F07451D9267551DA22FD
:10114800DF50010AD8B4DFD7030AD8A41200E6D7C3
:101158000001616F61C060F0070E000160170001B7
:10116800603BD350000160198F0B6019D36EFC0EE1
:10117800D31626B002D09B9C01D09B8C61C060F036
:101188000001D89060330001D89060330001D890F6
:101198006033010E000160170001603BD25000016E
:1011A8006019EF0B6019D26E61C060F00001603BFE
:1011B8000F0E6017010E00016017000160336033E5
:1011C8009B50000160197F0B60199B6E120060C074
:1011D800D9FF61C0DAFF62C0DEFF63C0DDFF000136
:1011E80020EE02F06051D9266151DA22000164052F
:1011F800DF6E000120EE03F06051D9266151DA223A
:10120800020EDF6E000120EE02F06051D926615116
:10121800DA22000110EE05F06051E1266151E22268
:10122800DFCFE7FF000120EE02F06051D9266151BF
:10123800DA22000110EE04F06051E1266151E22249
:10124800DFCFE7FF1200000120EE03F06051D9263E
:101258006151DA2262C0DEFF63C0DDFF000120EECB
:1012680005F06051D9266151DA2264C0DEFF65C0FD
:10127800DDFF000120EE07F06051D9266151DA2226
:1012880066C0DFFF000120EE02F06051D9266151EF
:10129800DA22000EDF6E60C0D9FF61C0DAFF000EEF
:1012A800DE6E000EDD6E120004EE00F0840EEE6AB3
:1012B800E806FDE103EE00F0840EEE6AE806FDE1C3
:1012C80002EE00F0EE0EEE6AE806FDE101EE00F037
:1012D800EE0EEE6AE806FDE100EE98F01F0EEE6AEB
:1012E800E806FDE100EE27F0130EEE6AE806FDE1E0
:1012F8003A903A92000EF86E000149EF00F010D0D3
:101308000F0E0001656FA00E646F00016407D8A07E
:10131800650700016429F9E100016529D8A4F5D71A
:10132800FF0E00016027FF0E6123FF0E6223FF0EF0
:10133800632300016029E4E100016129E1E1000182
:101348006229DEE100016329D8B41200D9D718D088
:1013580062C026F0010E2616263A26469D5026180B
:10136800DF0B26189D6E120062C026F0010E2616AD
:10137800263A2646A3502618DF0B2618A36E12001D
:10138800000120EE13F06051D9266151DA22DF50B6
:10139800010AD8B4DDD7030AD8A41200E5D716D0BD
:1013A80062C026F0010E2616263A9D502618EF0B2D
:1013B80026189D6E120062C026F0010E2616263AE7
:1013C800A3502618EF0B2618A36E1200000120EE7A
:1013D80013F06051D9266151DA22DF50010AD8B4DE
:1013E800DFD7030AD8A41200E6D716D003C004F04A
:1013F800010E0416043A9D500418EF0B04189D6E54
:10140800120003C004F0010E0416043AA350041895
:10141800EF0B0418A36E120020EE13F00150D9262A
:101428000250DA22DF50010AD8B4E0D7030AD8A460
:101438001200E7D76BC060F06CC061F0000E0001CD
:10144800626FD3EC09F06BC066F06CC067F06DC0DA
:1014580068F06EC069F06FC06AF03FEC0AF00001F6
:10146800706F6BC060F06CC061F0010E0001626FBC
:10147800D3EC09F0120017D066C060F067C061F0C5
:1014880068C0D9FF69C0DAFFDF500001626F03EC62
:1014980006F00009D8A402D0000E12000001684B23
:1014A800692B00016A0700016A510001D8A4E4D73A
:1014B800000E120066C060F067C061F0000E000107
:1014C800626FD3EC09F066C060F067C061F068C075
:1014D80062F003EC06F00001696F66C060F067C057
:1014E80061F0010E0001626FD3EC09F012000001F7
:1014F80020EE07F06051D9266151DA22DF50FF0A49
:101508008916000120EE02F06051D9266151DA22D5
:10151800000EDF6E000120EE08F06051D9266151FF
:10152800DA22000EDF6E1200000120EE07F0605193
:10153800D9266151DA22DF508912000120EE02F02B
:101548006051D9266151DA22010EDF6E000120EECA
:1015580008F06051D9266151DA22000EDF6E1200C0
:101568000001606F000EF2BE010E0001616FF29E75
:10157800A69CA69E60C0A9FFA680000161B102D00A
:10158800F29E01D0F28EA8501200000120EE08F061
:101598006051D9266151DA22010EDF6E60C0D9FF91
:1015A80061C0DAFF000EDE6E000EDD6E1200060E60
:1015B800000167250001606F000E0001682100012D
:1015C800616F69C062F06AC063F084EC05F01200D4
:1015D800000EB4EC0AF00001B76F1200010E120001
:0215E8001200EF
:020000040020DA
:08000000FFFFFFFFFFFFFFFF00
:020000040030CA
:0E000000FF381E3CFFBF81FF0FC00FE00F4016
:00000001FF
