:0400000049EF00F0D4
:100008003D82FACF18F0FBCF19F0E9CF1AF0EACF0A
:100018001BF0E1CF1CF0E2CF1DF0D9CF1EF0DACFF4
:100028001FF0F3CF20F0F4CF21F0F6CF22F0F7CF76
:1000380023F0F8CF24F0F5CF25F0F29E9E0E086E3F
:10004800000E096E42EC02F082EC07F0F28E25C039
:10005800F5FF24C0F8FF23C0F7FF22C0F6FF21C038
:10006800F4FF20C0F3FF1FC0DAFF1EC0D9FF1DC078
:10007800E2FF1CC0E1FF1BC0EAFF1AC0E9FF19C07C
:10008800FBFF18C0FAFF3D921100DCEF09F0000EEB
:100098000001956F0001B869E5EC07F0340E000126
:1000A800606F000E0001616FCEEC0AF02B0E0001AC
:1000B800606F000E0001616FCEEC0AF08FEC08F063
:1000C800F40E0001606F010E616F000E626F000E8A
:1000D800636F07EC0AF0340E0001606F000E000138
:1000E800616FB1EC0AF02B0E0001606F000E000189
:1000F800616FB1EC0AF0020E83D000019A6983D0D7
:1001080000019D05D8A410D00001B0A304D0020EB0
:1001180000019D6F09D02B0E0001606F000E0001D9
:10012800616FFFEC0AF0ECD7020E00019D19D8A40C
:1001380045D000019751D8B441D09E0E0001666F9A
:10014800000E0001676F800E0001686F94EC0AF0E2
:100158009E0E0001666F000E0001676F000E000121
:10016800686F94EC0AF09E0E0001666F000E0001A5
:10017800676F9CC068F094EC0AF09E0E00016B6FEC
:10018800000E00016C6F7F0E00016D6F020E000102
:100198006E6F9CC06FF054EC0AF09E0E0001666F03
:1001A800000E0001676F98C068F094EC0AF0010E29
:1001B80000019D6F000E0001976FA2D79E0E0001EF
:1001C800676F000E0001686F000196510001936F80
:1001D800946B93C069F094C06AF011EC0BF00009BD
:1001E800D8B48ED7340E0001606F000E0001616F25
:1001F800FFEC0AF0000196AF09D096C09BF0030E01
:1002080000019D6F7AD7000199697AD7030E000122
:100218009D19D8A403D096C09AF072D7040E000195
:100228009D19D8A404D096C099F0050E13D1050ED7
:1002380000019D19D8A4A5D0820E00019B19D8A44D
:100248002FD000019A290001B86F9E0E0001666F39
:10025800000E0001676F9BC068F094EC0AF09E0ED8
:100268000001666F000E0001676FB8C068F094EC7B
:100278000AF09E0E0001666F000E0001676F000E07
:100288000001686F94EC0AF09E0E0001666F000E84
:100298000001676F000E0001686F94EC0AF0D9D076
:1002A80000019A510001B819D8B42AD09E0E000155
:1002B800666F000E0001676F9BC068F094EC0AF04F
:1002C8009E0E0001666F000E0001676F9AC068F00D
:1002D80094EC0AF09E0E0001666F000E0001676F35
:1002E80099C068F094EC0AF09E0E0001666F000E4B
:1002F8000001676F96C068F094EC0AF0060EAAD069
:10030800830E00019B19D8A42BD09E0E0001666FA6
:10031800000E0001676F9BC068F094EC0AF09E0E17
:100328000001666F000E0001676FB8C068F094ECBA
:100338000AF09E0E0001666F000E0001676F000E46
:100348000001686F94EC0AF09E0E0001666F000EC3
:100358000001676F000E0001686F94EC0AF079D015
:10036800800E00019B19D8B405D0810E00019B199D
:10037800D8A407D0070E00019D6F000E0001956FED
:10038800BFD6060E00019D19D8A40AD09E0E000102
:10039800666F000E0001676F96C068F094EC0AF073
:1003A800070E00019D19D8A415D000019551010D23
:1003B800000EF324D96E020EF420DA6E96C0DFFF29
:1003C8000001952B0001995100019519D8A498D6E0
:1003D800080E40D0080E00019D19D8A43ED0000197
:1003E80096512AEC0BF00009D8B433D0810E0001E5
:1003F8009B19D8A42AD09E0E0001666F000E00013A
:10040800676F9BC068F094EC0AF09E0E0001666F5F
:10041800000E0001676FB8C068F094EC0AF09E0EF9
:100428000001666F000E0001676F000E0001686F23
:1004380094EC0AF09E0E0001666F000E0001676FD3
:10044800000E0001686F94EC0AF02EEC0BF028EC1B
:100458000BF0020E00019D6F53D6340E0001606F41
:10046800000E0001616F1EEC05F02B0E0001606F9D
:10047800000E0001616F1EEC05F042D63FD0000E61
:100488009EB8010E106E000E9DB8010E0D6E000E86
:100498009EBA010E146E000E9DBA010E116E000E6A
:1004A800ABB4010E126E000EABB2010E136EAB0EA2
:1004B800156E0F0E166EAC0E1DD0000EA4B8010EF0
:1004C800106E000EA3B8010E0D6E000EA4BA010E38
:1004D800146E000EA3BA010E116E000E71B4010E57
:1004E800126E000E71B2010E136E710E156E0F0EA4
:1004F800166E720E0E6E0F0E0F6E0DD020EE13F0EC
:100508000850D9260950DA22DF50010AD8B4B7D7E3
:10051800030AD8B4D2D71050D8B4C3D008C001F059
:1005280009C002F0170E036E000E046EABEC06F065
:100538000009D8B432D020EE14F00850D92609505A
:10054800DA22DF50D8B418D020EE18F00850D92697
:100558000950DA22DF500A6E20EE15F00850D9262D
:100568000950DA22DECF0BF0DDCF0CF00BC0D9FF3B
:100578000CC0DAFF0A50DF1220EE0EF00850D92620
:100588000950DA22DECF0AF0DDCF0BF00AC0D9FF1E
:100598000BC0DAFF17C0DFFF84D020EE14F008503C
:1005A800D9260950DA22DF50D8B41ED00EC0D9FFA0
:1005B8000FC0DAFFDFA2FAD720EE19F00850D926CB
:1005C8000950DA22DF500A6E20EE15F00850D926BD
:1005D8000950DA22DECF0BF0DDCF0CF00BC0D9FFCB
:1005E8000CC0DAFF0A50DF1608C001F009C002F09B
:1005F800000E036E2FEC0AF054D01250D8B409D074
:1006080020EE12F00850D9260950DA22000EDB88B5
:1006180012001350D8B413D020EE12F00850D92687
:100628000950DA22000EDB8A15C0D9FF16C0DAFF9E
:10063800EF0EDF1615C0D9FF16C0DAFFE7D720EE98
:1006480010F00850D9260950DA22DECF0AF0DDCFA3
:100658000BF00AC0D9FF0BC0DAFFDF50176E060E89
:100668000824016E000E0920026E17C003F01AEC70
:1006780007F00AD0000E9EBA010E146E12D0000EBA
:10068800A4BA010E146E0DD020EE13F00850D9262E
:100698000950DA22DF50010AD8B4ECD7030AD8B4DB
:1006A800EED7115014140009D8B41200A6D7000EC2
:1006B8000001736F000E726F900E000165190AE158
:1006C800D00E0001661906E1030E0001671900014A
:1006D8006411D8A495D068C0D9FF69C0DAFF010EAB
:1006E800DF6E2AD0340E0001736F140EADD00D0EDC
:1006F8000001736F040EA8D0060E0001736F820EFE
:10070800A3D0010E0001736FA00E9ED0010E000150
:10071800736F7F0E99D0000E0001736FCF0E94D0C7
:10072800000E0001736F440E8FD0000E0001736F2E
:10073800220E8AD0000E120060C06EF061C06FF009
:1007480062C070F063C071F000017151000AD8B442
:100758004ED0F0D700016F51010AD8B413D0050A62
:10076800D8B416D00D0AD8B419D02C0AD8B41CD0D5
:100778000D0AD8B41FD0630AD8B422D0AA0AD8B4B4
:1007880025D0D8D700016E512C0AD8B4ABD7D2D710
:1007980000016E51B00AD8B4AAD7CCD700016E5167
:1007A800600AD8B4A9D7C6D700016E51800AD8B458
:1007B800A8D7C0D700016E51B10AD8B4A7D7BAD705
:1007C80000016E51000AD8B4A6D7B4D700016E5103
:1007D800000AD8B4A5D7AED700016F51C20AD8A471
:1007E800A9D700016E51000AD8B49FD7A3D700013A
:1007F8007051000AD8B4AED7010AD8B4EDD79AD749
:10080800400E0001641996E1420E0001651992E15B
:100818000F0E0001661900016711D8A48BD768C0B4
:10082800D9FF69C0DAFF010EDF6E10D0000E00019B
:10083800736F330E09D0000E0001736F190E04D0C8
:10084800000E0001736F050E726F39D060C06EF034
:1008580061C06FF062C070F063C071F00001715147
:10086800000AD8B426D066D700016F51010AD8B45F
:100878000AD0050AD8B40BD00D0AD8B40ED0210A74
:10088800D8B411D057D700016E512C0A9CD700015B
:100898006E51B00AD8B4CAD74DD700016E51600A5C
:1008A800D8B4C9D747D700016E51B10AD8B4C8D750
:1008B80041D700017051000AD8B4D6D73BD7000100
:1008C80073516AC0D9FF6BC0DAFFDF6E6CC0D9FF05
:1008D8006DC0DAFF72C0DFFF010E1200000120EECA
:1008E80013F08251D9268351DA2284C0DFFF72D0F7
:1008F800000120EE0EF08251D9268351DA22AD0E86
:10090800DE6E0F0EDD6E000120EE10F08251D9264A
:100918008351DA22AE0EDE6E0F0EDD6E0F013A9DA8
:100928000F013A9F948C948EAC94AC98AC9CAC8A92
:10093800AB8EAB8882C074F083C075F085C076F04A
:1009480086C077F087C078F088C079F089C07AF0DF
:100958008AC07BF08BC07CF08CC07DF03EEC08F048
:100968009F889F8A3FD0000120EE0EF08251D92641
:100978008351DA22730EDE6E0F0EDD6E000120EE5B
:1009880010F08251D9268351DA22740EDE6E0F0ED2
:10099800DD6E938C938E72947298729C728A718EAB
:1009A800718882C074F083C075F085C076F086C007
:1009B80077F087C078F088C079F089C07AF08AC06B
:1009C8007BF08BC07CF08CC07DF03EEC08F0A588F5
:1009D800A58A08D000018451010AD8B489D7030A2E
:1009E800D8B4C1D7000120EE12F08251D926835124
:1009F800DA22000EDF6E82C060F083C061F08DC025
:100A080062F08EC063F08FC064F015EC09F0060E3A
:100A1800000182250001606F000E000183210001A2
:100A2800616F90C062F091C063F092C064F015EC01
:100A380009F0120060C0D9FF61C0DAFF010EDBBE09
:100A48000DD0010EDB5003E1DE04D8A007D060C052
:100A5800D9FF61C0DAFFDE06000EDD5A60C0D9FF9B
:100A680061C0DAFFDE50DE10D8A41200000120EECB
:100A780002F06051D9266151DA22DF50D8B423D070
:100A8800000120EE07F06051D9266151DA22DF50CB
:100A9800FF0A8916000120EE05F06051D926615140
:100AA800DA2260C0E1FF61C0E2FFDECFE6FFDDCF02
:100AB800E5FF000120EE02F06051D9266151DA22EB
:100AC800000EDF6E1200000120EE08F06051D926FA
:100AD8006151DA22DE04D8B40BD0000120EE08F010
:100AE8006051D9266151DA22020EDE18D8A409D045
:100AF800000120EE07F06051D9266151DA22DF505B
:100B08008912000120EE03F06051D9266151DA22E2
:100B180060C0E1FF61C0E2FFDECFE6FFDDCFE5FFA9
:100B2800000120EE02F06051D9266151DA22010E4F
:100B3800DF6E000120EE08F06051D9266151DA22FB
:100B4800DE04D8A41200000120EE08F06051D92676
:100B58006151DA22000EDF6E1200000120EE03F070
:100B68006051D9266151DA220001DFA202D0000EBD
:100B78001200000120EE05F06051D9266151DA22F9
:100B8800DF500001646F00016451010D60C0D9FF9E
:100B980061C0DAFFDECF65F0DDCF66F0F35000010B
:100BA8006525D96EF45000016621DA6E62C0E1FF56
:100BB80063C0E2FFDFCFE7FF000120EE03F06051E2
:100BC800D9266151DA22FE0EDF16000120EE05F06B
:100BD8006051D9266151DA22DF06000120EE05F0C6
:100BE8006051D9266151DA22000110EE02F06051FD
:100BF800E1266151E222DE50E65CD8B010D0000157
:100C080020EE02F06051D9266151DA22000110EE7F
:100C180005F06051E1266151E222DFCFE7FF0001D4
:100C280020EE04F06051D9266151DA22000110EE5D
:100C380005F06051E1266151E222DE50E618D8A4A1
:100C480009D0000120EE03F06051D9266151DA2263
:100C5800000EDB82010E1200000120EE03F060514D
:100C6800D9266151DA220001DFA002D0000E12005D
:100C7800000120EE04F06051D9266151DA22DF50DC
:100C88000001636F00016351010D60C0D9FF61C0AD
:100C9800DAFFDECF64F0DDCF65F0F35000016425A4
:100CA800D96EF45000016521DA6E62C0DFFF0001E1
:100CB80020EE03F06051D9266151DA22FD0EDF16CD
:100CC800000120EE04F06051D9266151DA22DF06D6
:100CD800000120EE04F06051D9266151DA220001AA
:100CE80010EE02F06051E1266151E222DE50E65C2E
:100CF800D8B010D0000120EE02F06051D926615121
:100D0800DA22000110EE04F06051E1266151E2227E
:100D1800DFCFE7FF000120EE05F06051D9266151D1
:100D2800DA22000110EE04F06051E1266151E2225E
:100D3800DE50E618D8A409D0000120EE03F0605177
:100D4800D9266151DA22000EDB80010E120020EE56
:100D580003F00150D9260250DA22DFA202D0000E99
:100D6800120020EE05F00150D9260250DA22DF5099
:100D7800056E0550010D01C0D9FF02C0DAFFDECFB4
:100D880006F0DDCF07F0F3500624D96EF4500720A3
:100D9800DA6E03C0E1FF04C0E2FFDFCFE7FF20EE19
:100DA80003F00150D9260250DA22FE0EDF1620EE9B
:100DB80005F00150D9260250DA22DF0620EE05F0B0
:100DC8000150D9260250DA2210EE02F00150E12635
:100DD8000250E222DE50E65CD8B00ED020EE02F0DF
:100DE8000150D9260250DA2210EE05F00150E12612
:100DF8000250E222DFCFE7FF20EE04F00150D926AF
:100E08000250DA2210EE05F00150E1260250E222EB
:100E1800DE50E618D8A408D020EE03F00150D926F9
:100E28000250DA22000EDB82010E120020EE03F0DF
:100E38000150D9260250DA22DFB0120020EE04F069
:100E48000150D9260250DA22DF50046E0450010DF9
:100E580001C0D9FF02C0DAFFDECF05F0DDCF06F012
:100E6800F3500524D96EF4500620DA6E03C0DFFF74
:100E780020EE03F00150D9260250DA22FD0EDF16CB
:100E880020EE04F00150D9260250DA22DF0620EEC7
:100E980004F00150D9260250DA2210EE02F0015077
:100EA800E1260250E222DE50E65CD8B00ED020EEF9
:100EB80002F00150D9260250DA2210EE04F0015057
:100EC800E1260250E222DFCFE7FF20EE05F00150D5
:100ED800D9260250DA2210EE04F00150E126025021
:100EE800E222DE50E618D8A4120020EE03F00150EA
:100EF800D9260250DA22000EDB801200F2A031D08F
:100F080081B81CD0000E81B6010E296E2950D8B4C4
:100F180011D02750010D6A0EF324D96E010EF4206A
:100F2800DA6EDF50C96E272A28502718D8A406D0B1
:100F38008A9404D0000E266E26C0C9FF81A810D05E
:100F48002950D8A40DD02FEC0BF000019C6F2CEC8D
:100F58000BF00001986F010E0001976F000E266ECE
:100F6800F2909EA612002950D8B419D02850275CB8
:100F7800D8B00BD02750010D6A0EF324D96E010E9C
:100F8800F420DA6EDF50C96E272A28502718D8A413
:100F980016D08A94000E276E000E286E10D0690EA7
:100FA80026600DD02650010D000EF324D96E010ED7
:100FB800F420DA6EC9CFDFFF262A26C0C9FF9E9625
:100FC8001200010E0001606F070ED5EC08F022EC4C
:100FD8000BF0000EF26E000EF06E000E9D6E000E0D
:100FE800A06E000EA36E000E7A6E000E7D6ED09E6F
:100FF800F28CF28EF28662889290929292949296F5
:101008009298929A0F0138910F0138930F013895F1
:101018000F0138970F01389B939493869388340E69
:101028000001606F000E0001616F000E0001636F28
:10103800050E626F000E0001656F050E646F010EEC
:101048000001666F51EC09F02B0E0001606F000E75
:101058000001616F000E0001636F050E626F000EE4
:101068000001656F050E646F020E0001666F51EC9A
:1010780009F0120076C060F077C061F078C062F0C5
:1010880079C063F07AC064F07BC065F07CC066F01C
:101098007DC067F0810E0001686F000E0001696F66
:1010A8007F0E00016A6F000E00016B6F800E000159
:1010B8006C6F000E00016D6F5BEC03F000017E6F3A
:1010C80000017E510001D8B4120016D0000181B190
:1010D80002D0B89601D0B8867FC0B0FF80C0AFFFFD
:1010E8001200000181B102D0709601D070867FC0D5
:1010F80076FF80C075FF1200000120EE13F07451D6
:10110800D9267551DA22DF50010AD8B4DFD7030A8D
:10111800D8A41200E6D79E0E0001826F000E0001CF
:10112800836F010E0001846F800E0001856F250E0C
:10113800866F000E876F000E886F000E0001896FA2
:10114800900E8A6FD00E8B6F030E8C6F000E00010D
:101158008D6F030E00018E6FA00E00018F6F000EC1
:101168000001906F040E0001916FA00E0001926FB4
:1011780072EC04F09E0E0001606F000E0001616FBA
:10118800010E0001626FB0EC09F09E0E0001606F65
:10119800000E0001616F010E0001626F82EC09F020
:1011A80012000001626F62C061F0070E0001611752
:1011B8000001613BD350000161198F0B6119D36E97
:1011C800FC0ED316000160B102D09B9C01D09B8C11
:1011D80062C061F00001D89061330001D89061339A
:1011E8000001D8906133010E000161170001613BD5
:1011F800D25000016119EF0B6119D26E62C061F023
:101208000001613B0F0E6117010E0001611700011B
:10121800613361339B50000161197F0B61199B6E2B
:10122800120060C0D9FF61C0DAFF62C0DEFF63C090
:10123800DDFF000120EE02F06051D9266151DA226B
:1012480000016405DF6E000120EE03F06051D9262D
:101258006151DA22020EDF6E000120EE02F06051C9
:10126800D9266151DA22000110EE05F06051E1261D
:101278006151E222DFCFE7FF000120EE02F060516A
:10128800D9266151DA22000110EE04F06051E126FE
:101298006151E222DFCFE7FF1200000120EE03F0E8
:1012A8006051D9266151DA2262C0DEFF63C0DDFFDA
:1012B800000120EE05F06051D9266151DA2264C0A0
:1012C800DEFF65C0DDFF000120EE07F06051D92682
:1012D8006151DA2266C0DFFF000120EE02F06051A2
:1012E800D9266151DA22000EDF6E60C0D9FF61C0D5
:1012F800DAFF000EDE6E000EDD6E12001ED062C038
:1013080063F0010E000163170001633B63479D50C2
:1013180000016319DF0B63199D6E120062C063F050
:10132800010E000163170001633B6347A3500001EE
:101338006319DF0B6319A36E1200000120EE13F08E
:101348006051D9266151DA22DF50010AD8B4D7D7C3
:10135800030AD8A41200E2D71CD062C063F0010EC1
:10136800000163170001633B9D5000016319EF0BF7
:1013780063199D6E120062C063F0010E00016317CD
:101388000001633BA35000016319EF0B6319A36EBF
:101398001200000120EE13F06051D9266151DA22C3
:1013A800DF50010AD8B4D9D7030AD8A41200E3D76A
:1013B80004EE00F0840EEE6AE806FDE103EE00F0AC
:1013C800840EEE6AE806FDE102EE00F0FE0EEE6A1B
:1013D800E806FDE101EE00F0D40EEE6AE806FDE154
:1013E80000EE97F0210EEE6AE806FDE100EE26F029
:1013F800170EEE6AE806FDE13D903D92000EF86E8C
:1014080000014BEF00F010D00F0E0001656FA00E29
:10141800646F00016407D8A0650700016429F9E139
:1014280000016529D8A4F5D7FF0E00016027FF0E3B
:101438006123FF0E6223FF0E632300016029E4E1AC
:1014480000016129E1E100016229DEE1000163296F
:10145800D8B41200D9D716D003C004F0010E041670
:10146800043A9D500418EF0B04189D6E120003C037
:1014780004F0010E0416043AA3500418EF0B0418E4
:10148800A36E120020EE13F00150D9260250DA2282
:10149800DF50010AD8B4E0D7030AD8A41200E7D76E
:1014A8006BC060F06CC061F0000E0001626FB0ECC0
:1014B80009F06BC066F06CC067F06DC068F06EC074
:1014C80069F06FC06AF075EC0AF00001706F6BC0CC
:1014D80060F06CC061F0010E0001626FB0EC09F0C1
:1014E800120017D066C060F067C061F068C0D9FF0D
:1014F80069C0DAFFDF500001626F30EC06F00009C6
:10150800D8A402D0000E12000001684B692B00011C
:101518006A0700016A510001D8A4E4D7000E12003E
:1015280066C060F067C061F0000E0001626FB0EC49
:1015380009F066C060F067C061F068C062F030EC26
:1015480006F00001696F66C060F067C061F0010EC7
:101558000001626FB0EC09F01200000120EE07F004
:101568006051D9266151DA22DF50FF0A891600013D
:1015780020EE02F06051D9266151DA22000EDF6EAA
:10158800000120EE08F06051D9266151DA22000EE0
:10159800DF6E1200000120EE07F06051D92661517C
:1015A800DA22DF508912000120EE02F06051D926BC
:1015B8006151DA22010EDF6E000120EE08F0605161
:1015C800D9266151DA22000EDF6E12000001606F29
:1015D800000EF2BE010E0001616FF29EA69CA69E4F
:1015E80060C0A9FFA680000161B102D0F29E01D0BF
:1015F800F28EA8501200000120EE08F06051D926A2
:101608006151DA22010EDF6E60C0D9FF61C0DAFFD6
:10161800000EDE6E000EDD6E1200060E000167255C
:101628000001606F000E000168210001616F69C050
:1016380062F06AC063F0B1EC05F01200000EEAEC4B
:101648000AF00001B86F12008A841200010E12001D
:08165800000E12001200120046
:020000040020DA
:08000000FFFFFFFFFFFFFFFF00
:020000040030CA
:0E000000FF381E3CFFBF81FF0FC00FE00F4016
:00000001FF
